{
  "contractName": "notas",
  "abi": [
    {
      "inputs": [],
      "stateMutability": "nonpayable",
      "type": "constructor"
    },
    {
      "anonymous": false,
      "inputs": [
        {
          "indexed": false,
          "internalType": "bytes32",
          "name": "",
          "type": "bytes32"
        }
      ],
      "name": "alumno_evaluado",
      "type": "event"
    },
    {
      "anonymous": false,
      "inputs": [
        {
          "indexed": false,
          "internalType": "string",
          "name": "",
          "type": "string"
        }
      ],
      "name": "alumno_revision",
      "type": "event"
    },
    {
      "anonymous": false,
      "inputs": [
        {
          "indexed": false,
          "internalType": "string",
          "name": "",
          "type": "string"
        }
      ],
      "name": "evento_revision",
      "type": "event"
    },
    {
      "inputs": [],
      "name": "profesor",
      "outputs": [
        {
          "internalType": "address",
          "name": "",
          "type": "address"
        }
      ],
      "stateMutability": "view",
      "type": "function",
      "constant": true
    },
    {
      "inputs": [
        {
          "internalType": "string",
          "name": "_idAlumno",
          "type": "string"
        },
        {
          "internalType": "uint256",
          "name": "_nota",
          "type": "uint256"
        }
      ],
      "name": "Evaluar",
      "outputs": [],
      "stateMutability": "nonpayable",
      "type": "function"
    },
    {
      "inputs": [
        {
          "internalType": "string",
          "name": "_idAlumno",
          "type": "string"
        }
      ],
      "name": "VerNotas",
      "outputs": [
        {
          "internalType": "uint256",
          "name": "",
          "type": "uint256"
        }
      ],
      "stateMutability": "view",
      "type": "function",
      "constant": true
    },
    {
      "inputs": [
        {
          "internalType": "string",
          "name": "_idAlumno",
          "type": "string"
        }
      ],
      "name": "Revision",
      "outputs": [],
      "stateMutability": "nonpayable",
      "type": "function"
    },
    {
      "inputs": [],
      "name": "VerRevisiones",
      "outputs": [
        {
          "internalType": "string[]",
          "name": "",
          "type": "string[]"
        }
      ],
      "stateMutability": "view",
      "type": "function",
      "constant": true
    }
  ],
  "bytecode": "0x608060405234801561001057600080fd5b50336000806101000a81548173ffffffffffffffffffffffffffffffffffffffff021916908373ffffffffffffffffffffffffffffffffffffffff160217905550610a51806100606000396000f3fe608060405234801561001057600080fd5b50600436106100575760003560e01c8063040d9f601461005c5780632cd22cd81461007857806333731af614610094578063df096576146100c4578063f22044e6146100e2575b600080fd5b610076600480360381019061007191906105c2565b610100565b005b610092600480360381019061008d9190610581565b610210565b005b6100ae60048036038101906100a99190610581565b610286565b6040516100bb9190610886565b60405180910390f35b6100cc6102d4565b6040516100d991906107ec565b60405180910390f35b6100ea6102f9565b6040516100f79190610807565b60405180910390f35b336000809054906101000a900473ffffffffffffffffffffffffffffffffffffffff1673ffffffffffffffffffffffffffffffffffffffff168173ffffffffffffffffffffffffffffffffffffffff1614610190576040517f08c379a000000000000000000000000000000000000000000000000000000000815260040161018790610866565b60405180910390fd5b6000836040516020016101a391906107d5565b6040516020818303038152906040528051906020012090508260016000838152602001908152602001600020819055507f9129eeeb684507aca017f10030b70e5bf86d129f417fcc5840348a957eb12cee816040516102029190610829565b60405180910390a150505050565b60028190806001815401808255809150506001900390600052602060002001600090919091909150908051906020019061024b929190610473565b507fafd73f39162aa4c0421f362f3a3d26f44b23c73253256cfc1c68794b0973e0a08160405161027b9190610844565b60405180910390a150565b6000808260405160200161029a91906107d5565b6040516020818303038152906040528051906020012090506000600160008381526020019081526020016000205490508092505050919050565b6000809054906101000a900473ffffffffffffffffffffffffffffffffffffffff1681565b6060336000809054906101000a900473ffffffffffffffffffffffffffffffffffffffff1673ffffffffffffffffffffffffffffffffffffffff168173ffffffffffffffffffffffffffffffffffffffff161461038b576040517f08c379a000000000000000000000000000000000000000000000000000000000815260040161038290610866565b60405180910390fd5b6002805480602002602001604051908101604052809291908181526020016000905b82821015610469578382906000526020600020018054600181600116156101000203166002900480601f0160208091040260200160405190810160405280929190818152602001828054600181600116156101000203166002900480156104555780601f1061042a57610100808354040283529160200191610455565b820191906000526020600020905b81548152906001019060200180831161043857829003601f168201915b5050505050815260200190600101906103ad565b5050505091505090565b828054600181600116156101000203166002900490600052602060002090601f016020900481019282601f106104b457805160ff19168380011785556104e2565b828001600101855582156104e2579182015b828111156104e15782518255916020019190600101906104c6565b5b5090506104ef91906104f3565b5090565b61051591905b808211156105115760008160009055506001016104f9565b5090565b90565b600082601f83011261052957600080fd5b813561053c610537826108ce565b6108a1565b9150808252602083016020830185838301111561055857600080fd5b6105638382846109b1565b50505092915050565b60008135905061057b81610a04565b92915050565b60006020828403121561059357600080fd5b600082013567ffffffffffffffff8111156105ad57600080fd5b6105b984828501610518565b91505092915050565b600080604083850312156105d557600080fd5b600083013567ffffffffffffffff8111156105ef57600080fd5b6105fb85828601610518565b925050602061060c8582860161056c565b9150509250929050565b600061062283836106bd565b905092915050565b6106338161096b565b82525050565b60006106448261090a565b61064e818561092d565b935083602082028501610660856108fa565b8060005b8581101561069c578484038952815161067d8582610616565b945061068883610920565b925060208a01995050600181019050610664565b50829750879550505050505092915050565b6106b78161097d565b82525050565b60006106c882610915565b6106d2818561093e565b93506106e28185602086016109c0565b6106eb816109f3565b840191505092915050565b600061070182610915565b61070b818561094f565b935061071b8185602086016109c0565b610724816109f3565b840191505092915050565b600061073a82610915565b6107448185610960565b93506107548185602086016109c0565b80840191505092915050565b600061076d602d8361094f565b91507f4e6f207469656e6573207065726d69736f73207061726120656a65637574617260008301527f20657374612066756e63696f6e000000000000000000000000000000000000006020830152604082019050919050565b6107cf816109a7565b82525050565b60006107e1828461072f565b915081905092915050565b6000602082019050610801600083018461062a565b92915050565b600060208201905081810360008301526108218184610639565b905092915050565b600060208201905061083e60008301846106ae565b92915050565b6000602082019050818103600083015261085e81846106f6565b905092915050565b6000602082019050818103600083015261087f81610760565b9050919050565b600060208201905061089b60008301846107c6565b92915050565b6000604051905081810181811067ffffffffffffffff821117156108c457600080fd5b8060405250919050565b600067ffffffffffffffff8211156108e557600080fd5b601f19601f8301169050602081019050919050565b6000819050602082019050919050565b600081519050919050565b600081519050919050565b6000602082019050919050565b600082825260208201905092915050565b600082825260208201905092915050565b600082825260208201905092915050565b600081905092915050565b600061097682610987565b9050919050565b6000819050919050565b600073ffffffffffffffffffffffffffffffffffffffff82169050919050565b6000819050919050565b82818337600083830152505050565b60005b838110156109de5780820151818401526020810190506109c3565b838111156109ed576000848401525b50505050565b6000601f19601f8301169050919050565b610a0d816109a7565b8114610a1857600080fd5b5056fea2646970667358221220bb8b049eb0c9c7a0d09da5a9d73e2ee64abb4dddbbb0e8f413ecc9ac10d2516864736f6c63430006060033",
  "immutableReferences": {},
  "source": "// SPDX-License-Identifier: MIT\npragma solidity >=0.4.22 <0.9.0;\npragma experimental ABIEncoderV2;\n\n// --------------------------------------------\n// ALUMNO   /   ID      /   NOTA\n// --------------------------------------------\n//  Marcos  /   77755N  /   5\n//  Joan    /   12345X  /   9\n//  Maria   /   02468T  /   2\n//  Mata    /   13579U  /   3\n//  Alba    /   98765Z  /   5\n\ncontract notas {\n    // Direccion del Profesor\n    address public profesor;\n\n    // Constructor\n    constructor() public {\n        profesor = msg.sender;\n    }\n\n    // Mapping para relacionar el hash de la identidad del alumno con su nota del examen\n    mapping(bytes32 => uint256) Notas;\n\n    // Array de los alumnos que pidan revisiones de examen\n    string[] revisiones;\n\n    // Eventos\n    event alumno_evaluado(bytes32);\n    event alumno_revision(string);\n    event evento_revision(string);\n\n    // funcion para evaluar a alimnos\n    function Evaluar(string memory _idAlumno, uint256 _nota)\n        public\n        UnicamenteProfesor(msg.sender)\n    {\n        // Hash de la identificacion del alumno\n        bytes32 hash_idAlumno = keccak256(abi.encodePacked(_idAlumno));\n        // Relacion entre el hash de la identificacion del alumno y su nota\n        Notas[hash_idAlumno] = _nota;\n        // Emision del evento\n        emit alumno_evaluado(hash_idAlumno);\n    }\n\n    // Control de las funciones ejecutables por el profesor\n    modifier UnicamenteProfesor(address _direccion) {\n        // Requiere que la introduccion introducida por parametro sea igual al owner del contrato\n        require(\n            _direccion == profesor,\n            \"No tienes permisos para ejecutar esta funcion\"\n        );\n        _;\n    }\n\n    // Funcion para ver las notas de un alumno\n    function VerNotas(string memory _idAlumno) public view returns (uint256) {\n        // Hash de la identificacion del alumno\n        bytes32 hash_idAlumno = keccak256(abi.encodePacked(_idAlumno));\n        // Nota asociada al hash del alumno\n        uint256 nota_alumno = Notas[hash_idAlumno];\n        // Visualizar la nota\n        return nota_alumno;\n    }\n\n    // Funcion para pedir revision del examen\n    function Revision(string memory _idAlumno) public {\n        // Almacenamiento de la identidad del alumno en un array\n        revisiones.push(_idAlumno);\n        // Emision del evento\n        emit evento_revision(_idAlumno);\n    }\n\n    // Funcion para ver quien ha pedido revision del examen\n    function VerRevisiones()\n        public\n        view\n        UnicamenteProfesor(msg.sender)\n        returns (string[] memory)\n    {\n        // Devolver las identidades de los alumnos que han solicitado revision\n        return revisiones;\n    }\n}\n",
  "sourcePath": "/Users/roquebugarin/Documents/Blockchain/notas/contracts/Notas.sol",
  "compiler": {
    "name": "solc",
    "version": "0.6.6+commit.6c089d02.Emscripten.clang"
  },
  "schemaVersion": "3.4.7",
  "updatedAt": "2022-05-10T07:15:17.323Z",
  "networkType": "ethereum",
  "devdoc": {
    "methods": {}
  },
  "userdoc": {
    "methods": {}
  }
}